:020000040800F2
:10000000A85D002055020008570C00089B0B000853
:10001000550C00084F050008911900080000000069
:100020000000000000000000000000009D0100082A
:10003000F90A000800000000F1010008951400080A
:100040006F0200086F0200086F0200086F020008CC
:100050006F0200086F0200086F0200086F020008BC
:100060006F0200086F0200086F0200086F020008AC
:100070006F0200086F0200086F0200086F0200089C
:100080006F0200086F0200086F0200086F0200088C
:10009000550700086F0200086F0200086F02000891
:1000A0006F0200086F0200086F0200086F0200086C
:1000B0006F0200086F0200086F0200086F0200085C
:1000C0006F0200086F0200086F0200086F0200084C
:1000D0006F020008C1170008C5170008C9170008FB
:1000E0006F0200086F0200086F0200086F0200082C
:1000F0006F0200086F0200086F0200086F0200081C
:100100006F0200086F0200086F0200086F0200080B
:10011000D5160008D91600086F0200086F02000803
:100120006F0200086F0200086F0200086F020008EB
:100130006F0200086F0200086F0200086F020008DB
:100140006F0200086F0200086F0200086F020008CB
:100150006F0200086F0200086F0200086F020008BB
:100160006F0200086F0200086F0200086F020008AB
:100170006F0200086F0200086F0200086F0200089B
:100180006F0200086F020008DFF80CD000F0BEF923
:1001900000480047091E0008A85D00202A4B196886
:1001A0000868B0E8F04F80F30988BFF36F8F4FF015
:1001B000000080F3118870470000000006480068C6
:1001C000006880F3088862B661B6BFF34F8FBFF353
:1001D0006F8F00DF00BF00BF08ED00E0DFF80C000C
:1001E000016841F470010160704700BF88ED00E0D4
:1001F000EFF30980BFF36F8F134B1A681EF0100FD7
:1002000008BF20ED108A20E9F04F106008B44FF0CD
:10021000500080F31188BFF34F8FBFF36F8F03F04F
:10022000B5FA4FF0000080F3118808BC196808681F
:10023000B0E8F04F1EF0100F08BFB0EC108A80F34A
:100240000988BFF36F8F704748000020EFF30580E7
:10025000704700000648804706480047FEE7FEE773
:10026000FEE7FEE7FEE7FEE7FEE7FEE7FEE7FEE766
:10027000A91400088901000840EA01039B0703D084
:1002800009E008C9121F08C0042AFAD203E011F8D5
:10029000013B00F8013B521EF9D27047D2B201E097
:1002A00000F8012B491EFBD270470022F6E710B57B
:1002B00013460A4604461946FFF7F0FF204610BDD4
:1002C0002DE9FE4F81EA030404F0004421F00041CF
:1002D00000944FF0000B23F0004350EA01045ED07D
:1002E00052EA03045BD0C3F30A54C1F30A552C4409
:1002F000A4F2F3340194A0FB0254C1F3130141F4BE
:100300008011C3F3130343F4801301FB024400FB89
:10031000034E840A970A44EA815447EA8357A4FBB0
:10032000076802958D0A05FB07854FEA932C04FBAD
:100330000C542705029D4FEA065847EA1637B5EBDD
:1003400008056EEB070C870E920E47EA811742EA0A
:100350008312A7FB0201B6EB0B0164EB00042B0D2B
:1003600043EA0C335E1844EB1C50DA465146E7FB77
:100370000201C5F313044FEA0B3343EA14534FEA67
:100380000432019C43EA0603A4F10C040294009C8D
:10039000CDE900B400F06BF803B0BDE8F08F0020A9
:1003A0000146F9E70EB5C10F80EAE0700844CA07BC
:1003B000002140F233438DE80E000A460B4600F060
:1003C00056F803B000BD70B5C1F30A5201F0004504
:1003D0000024C1F3130140F2FF3341F480119A422B
:1003E00001DA002070BD40F233439A42A2F2334258
:1003F00003DC524200F01CF800E090402C43F1D0A6
:10040000404270BD30B50B46014600202022012439
:1004100009E021FA02F59D4205D303FA02F5491BD2
:1004200004FA02F52844151EA2F10102F1DC30BDE8
:10043000202A04DB203A21FA02F00021704721FA39
:1004400002F3D040C2F120029140084319467047A0
:1004500010B5141E73F1000408DA401C41F10001CC
:1004600092185B411A4301D120F0010010BD2DE923
:10047000F04D92469B4611B1B1FA81F202E0B0FA1A
:1004800080F22032904600F053F804460F4640EACE
:100490000A0041EA0B0153465A46084313D011465D
:1004A00053EA010019D0C8F140025046FFF7C0FFDF
:1004B00005460E4650465946424600F039F8084374
:1004C00005D0012004E020463946BDE8F08D00202B
:1004D000054346EAE0762C4337430A986305E40A6D
:1004E000A0EB08000022FD0A44EA47540A3002D576
:1004F00000200146E9E7010510196941DDE90845D9
:1005000000196941BDE8F04DA2E70000064C074D17
:1005100006E0E06840F0010394E8070098471034D3
:10052000AC42F6D3FFF734FE145B0008345B0008DE
:10053000202A04DB203A00FA02F1002070479140A3
:10054000C2F1200320FA03F3194390407047FEE7FD
:100550001CB50121082000F06FFD4FF400600090F1
:1005600001208DF8040000218DF8061003218DF87C
:1005700005108DF807006946014800F0BEFA1CBD61
:10058000000C02402DE9F04F87B00024E8B3E1B33E
:10059000DAB3D3B3491E401E01F0FF09C7B2521EA1
:1005A0005B1E0121D6B29DB2084600F045FD012137
:1005B000480600F04DFD4FF4C050049002208DF825
:1005C00014004FF000088DF8168003208DF81500F8
:1005D000DFF874A14FF0010B8DF817B004A9504655
:1005E00000F08BFA09220B21504600F0C2FA0922D2
:1005F0000C21504600F0BDFA5448C0F80080016854
:1006000041F001010160031D0AE0FFE7012007B08E
:10061000BDE8F08F641CA4B2642C01D90220F6E777
:100620001968C907F6D00168824601600168016057
:1006300001680160016841F010010160016801601A
:1006400001680160414942461C31C1F80080D1F87F
:100650000080DDF840C048EA8C7CC1F800C0D1F8C9
:1006600000C04CEA07670F60D1F800C04CEA095798
:100670000F600F6847EA06460E600E682E430E6054
:10068000016821F0010101604FF6F07005E0641C83
:10069000A4B2844201D90320B9E71968C907F6D189
:1006A0002B48016841F00101016029491C310B68A8
:1006B00023F001030B60264B0C331C6844F001044B
:1006C0001C60031D1C681C60214B14331C681C60DB
:1006D0001F4B40331A601B1D1A600B6843F0010367
:1006E0000B60016802608DF80AB08DF80B208DF860
:1006F0000CB0ADF80020ADF804205C46ADF8022047
:10070000ADF80620ADF808208DF80DB0684600F071
:100710001FF90E481430016841F0020101601420F5
:100720008DF818008DF8194003208DF81A008DF807
:100730001B4006A800F090FA01220221504600F06A
:100740006DF9002063E700000000024000640040F3
:100750000066004030B589B01149002002AD087034
:1007600007A8CDE9000506AB05AA04A9002000F002
:1007700019F89DF8080060280FD19DF8090000289D
:100780000BD09DF80A00002807D00024285D02F055
:100790001DFC641CE4B2082CF8D309B030BD000085
:1007A000C0000020F0B5224CDDE9057504EB001413
:1007B000D4F8B06516F004061670D4F8B02532D01F
:1007C000D2080A60D4F8B01501F002011970D4F80B
:1007D000B41501F00F013970D4F8B8152970D4F8A8
:1007E000B815090A6970D4F8B815090CA970D4F8BD
:1007F000B815090EE970D4F8BC152971D4F8BC15E8
:10080000090A6971D4F8BC15090CA971D4F8BC1592
:10081000090EE97148B1012804D10648016841F088
:1008200020010160F0BD520DCBE70248001FF5E743
:10083000006000401064004038B500240091082397
:100840002246214600F014F8054640F6FF7301E009
:10085000641CA4B2284600F049F8072801D09C4245
:10086000F6D39C4201D3012038BD002038BD0000E2
:1008700070B506461B48049C05686D0101D5002033
:1008800008E005682D0101D5012003E00068C000E3
:1008900007D50220144D31B142EAC60141F00401EE
:1008A00003E0FF2070BD42EA465105EB0012C2F89A
:1008B000801505EB0011C1F884352278D4F8013099
:1008C00042EA0322C1F888252279D4F8053042EAA9
:1008D0000322C1F88C25D1F8802542F00102C1F82D
:1008E000802570BD0864004000600040174928B1B1
:1008F000012810D002281BD00520704708680A681C
:1009000000F0010002F002020243086800F080607B
:1009100042EA1060704708680A6800F0010002F0BF
:1009200002020243086800F0006042EA506070472B
:1009300008680A6800F0010002F002020243086839
:1009400000F0805042EA9060704700000864004068
:10095000F0B5827A2F4D012191402A6842F00102C0
:100960002A602C4E1C3632688A433260294A047B46
:10097000294B0C32A4B914688C4314604488C7888E
:1009800044EA0744877A03EBC707C7F84046048860
:10099000878844EA0744877A03EBC707C7F84446C9
:1009A000047B012C12D114680C431460847A026811
:1009B00003EBC4044FEA3242C4F84026847A42680A
:1009C00003EBC4034FEA3242C3F84426114AC37A08
:1009D000121D002B136806D00B4313600D4A0389C8
:1009E000143213B104E08B43F7E713688B431360B1
:1009F0000389012B02D113680B431360407B01284C
:100A000002D1306808433060286820F00100286077
:100A1000F0BD00000066004000600040002A42690E
:100A200001D00A4300E08A43426170471FB50C4978
:100A300000206A4602AB0C5C14540C18A47D1C54B4
:100A4000401CC0B20828F6D3114640F20160FFF7FF
:100A5000F3FE02A940F20170FFF7EEFE1FBD000099
:100A6000D80000200020054A01465318491C9B7CF1
:100A7000C9B21844C0B20C29F7D37047D80000207F
:100A800008B501F075F90C4C0C4D0D4E00900A2183
:100A9000684602F071FC2068642801DA401C20607E
:100AA000287810B100F042FB01E000F023FC0121A6
:100AB000306802F0B7FEEAE7BC000020D400002056
:100AC000040000201CB50121022000F0B5FA082026
:100AD000009001208DF8040000218DF806100321FC
:100AE0008DF805108DF807006946024800F005F8FA
:100AF0001CBD0000000402407047F0B50022012731
:100B00004FF0030C0B6807FA02F52B40AB422CD1D7
:100B1000066853000CFA03F4A64306600E79D0F879
:100B200000E09E4046EA0E0606600E79012E01D0D6
:100B3000022E12D18668A64386604E79D0F808E06E
:100B40009E4046EA0E0686604668AE4346604568AB
:100B50008E799640B6B235434560C568A543C560F9
:100B6000CC799C40C3681C43C460521C102AC9D372
:100B7000F0BD4B07DB0E9A40C90810B500EB8100B1
:100B8000016A0F249C40A1430162016A1143016282
:100B900010BD4183704701837047FEE710B545F2F1
:100BA000555000F027F8042000F018F840F2DC500F
:100BB00000F01AF8BDE81040AFF3008002494CF68F
:100BC000CC400860704700000030004002494AF6FF
:100BD000AA200860704700000030004001494860CA
:100BE00070470000003000400149886070470000F5
:100BF00000300040014908607047000000300040AC
:100C00001CB50121082000F017FA4FF46040009055
:100C100001208DF8040000218DF8061003218DF8C5
:100C200005100B4C8DF8070069462046FFF765FF5D
:100C30004FF480412046FFF7AEFF4FF400512046AD
:100C4000FFF7A9FF4FF400412046FFF7A4FF1CBDAA
:100C5000000C0240FEE7704730B50F23C2780178E0
:100C60000125FAB1144A126801F1E02102F4E062B0
:100C7000C2F5E062C2F30722C2F10404D340427815
:100C8000A24084781C401443220181F8002400789B
:100C900000F01F018D404009800000F1E020C0F805
:100CA000005130BD01F01F0085404809800000F16F
:100CB000E020C0F8805130BD0CED00E0024908434F
:100CC00002490860704700000000FA050CED00E0E2
:100CD00010B40021084B0A46002003EBC004401C5E
:100CE000C0B262548028F8D3491CC9B20829F3D392
:100CF00010BC00F0B7B800003801002010B57F2804
:100D000016D83F2914D80723A3EBD10301F007011C
:100D1000C1F107040121A140064CDBB204EBC00085
:100D2000002AC25CC9B201D00A4300E08A43C2541F
:100D300010BD0000380100207CB50121082000F022
:100D40007BF901268DF804600024F0208DF8064020
:100D500000908DF805408DF8074069463F48FFF741
:100D6000CCFE0121080700F073F9012000F05EF9C4
:100D7000002000F0CDF9002000F058F9384DC5F8FA
:100D80009442642005F5257500F0B2FF2E60002125
:100D9000AE2000F029F90021D52000F025F900212E
:100DA000502000F021F90021A82000F01DF90021B9
:100DB0003F2000F019F90021D32000F015F900219F
:100DC000084600F011F90021402000F00DF9002143
:100DD0008D2000F009F90021142000F005F9002110
:100DE000202000F001F90021022000F0FDF8002190
:100DF000A12000F0F9F80021C02000F0F5F8002152
:100E0000DA2000F0F1F80021122000F0EDF80021C6
:100E1000812000F0E9F80021EF2000F0E5F8002142
:100E2000D92000F0E1F80021F12000F0DDF80021E8
:100E3000DB2000F0D9F80021302000F0D5F80021A7
:100E4000A42000F0D1F80021A62000F0CDF8002168
:100E5000AF2000F0C9F8FFF73BFF7CBD000C02405B
:100E60000080414270B5104E002505F1B000C0B2BF
:100E7000002100F0B9F80021084600F0B5F8002183
:100E8000102000F0B1F8002406EBC4000121405D01
:100E900000F0AAF8641CE4B2802CF5D36D1CEDB20E
:100EA000082DE2D370BD0000380100202DE9F04F7D
:100EB000203A98460D468346894602F0FF0A0026EE
:100EC0002EE0B8F10C0F08D0174901EB0A100027EB
:100ED000845D200607D5099A08E014490AEB4A0008
:100EE00001EB8000F3E7099890B1002229465846AB
:100EF000FFF704FF6D1C6006EDB2040EA5EB0901BF
:100F0000414507D10BF101004D4600F0FF0B05E014
:100F10000122EBE77F1CFFB2082FDAD3761CF6B272
:100F20004645CED3BDE8F08FE44A0008704600087D
:100F30002DE9FF4F81B00027DDF838B01D469246FD
:100F400080463C464FF001094FEA5B0627E0281B2C
:100F5000401EC1B20A2000F073FFBAFBF0F00A2174
:100F6000B0FBF1F201FB120027B9691E8C4201DAD5
:100F700048B101273030C2B206FB0480C0B25B46E4
:100F8000CDF8009006E006FB0480C0B25B4620224C
:100F9000CDF800900299FFF789FF641CE4B2AC42DF
:100FA000D5D305B0BDE8F08FF8B516460D4604461A
:100FB000012714E07A2C02D900241035EDB23A2D25
:100FC00003D900242546FFF783FE009732780C23CF
:100FD00029462046FFF76AFF0834E4B2761C3078D1
:100FE0000028E7D1F8BD000030B500230E4A0124E7
:100FF00011B1C2F8904201E0C2F890320021C2F86B
:101000009C32050602D5C2F8984201E0C2F8983237
:10101000C2F89C424006491C000EC9B20829EED312
:10102000C2F8904230BD0000008041420149086290
:101030007047000000000E42044A0029116801D0E8
:10104000014300E0814311607047000030380240E6
:10105000044A0029116801D0014300E08143116076
:101060007047000040380240044A0029116801D04E
:10107000014300E0814311607047000044380240A2
:1010800070B5204B1968204C11F00C0104D066108B
:10109000042903D0082903D004601BE0066019E08E
:1010A000184A121F1168C1F38055116801F03F0101
:1010B00015B1B6FBF1F101E0B4FBF1F1146812686F
:1010C000C4F388146143C2F30142521C5200B1FBC5
:1010D000F2F1016019680F2202EA11110B4A545C07
:1010E0000168E14041601C68072505EA9424145D0D
:1010F00021FA04F484601B6805EA5333D25CD140C2
:10110000C16070BD083802400024F400380000209F
:10111000054900220A700A70012802D0042801D172
:101120000520087070470000703802402DE9F04734
:101130006D4D0520698900F02DFC6C4C40F2E739BB
:101140004FF4FA7A40F2DC57012680B16889A0F2A8
:10115000F511494501D2022007E0B84202D984F8CE
:10116000326004E0504502D2042084F83200A846E0
:101170002988002000F00EFC28B9B8F804100220DD
:1011800000F008FCA8B1B8F8040001F08DFC14F9D7
:10119000321F90FBF1F5B8F8000001F085FC14F95E
:1011A000011B90FBF1F0291804F8011B281A04F820
:1011B00034094546B8F80810042000F0EBFBB0B144
:1011C00029894FF08048A1F2F510484501D200214D
:1011D0000AE04748B9424FF0080102D9FFF7D9FCAD
:1011E00001E0FFF7D8FC5146404600F0E1F9A8467F
:1011F000A989062000F0CEFB0025F8B1B8F80C0054
:10120000A0F2F511494504D284F83A5084F83B50D5
:1012100005E0B84208D984F83A6084F83B6084F865
:101220003C5084F83D5009E0504507D284F83A50CC
:1012300084F83B5084F83C6084F83D60B8F81210A4
:10124000092000F0A7FB50B1B8F81200B84202D94B
:1012500084F8376003E0504501D284F83750B8F87D
:101260000E10072000F096FBA8B1B8F80E00A0F20F
:10127000F511494502D204F8385F03E0B84203D9BA
:1012800004F8386F657006E0401EB0F5F97F02D8AB
:1012900004F8385F66704446B8F816100B2000F06A
:1012A00079FB70B1E08AA0F5FA70B0F57A7F08D9C1
:1012B000012001F08BFE332001F088FE802001F038
:1012C00085FE218B0C2000F065FB00280AD0012050
:1012D00001F07CFE662001F079FEBDE8F047802039
:1012E00001F074BEBDE8F08752050020D800002050
:1012F000000402402DE9F04100F066FA2F4D304C19
:10130000112808D000F060FA222823D1A87B04F825
:10131000330FE87B1DE095F90D3000220120511EAE
:10132000284F8607103B4FF4FA75132B12D2DFE8D3
:1013300003F00A0C13161A1E23292F331111111151
:101340001111393F42000A2001E06FF0090004F852
:10135000330F6070BDE8F08104F8331FF9E704F83B
:10136000330F6170F6E704F8332F6270F2E708215B
:101370003846FFF70EFC03E008213846FFF70BFC68
:10138000294600E000213046BDE8F04100F010B9E8
:1013900004F83A0F607008E004F83A2F6270A07009
:1013A000E070D7E704F83A2F6270A270E270D1E7DC
:1013B00084F83700CEE784F83720CBE71801002007
:1013C000D8000020000402400CB5002227490092FA
:1013D0000192086840F4803008604FF4A043086828
:1013E00000F4003001900098401C0090019810B962
:1013F00000989842F3D10868800334D50120019009
:101400001A484030026842F0805202601848026870
:1014100042F44042026015480830026802600268E7
:1014200042F400420260026842F4A0520260031FCC
:10143000104A1A600A6842F080720A600A689201D3
:10144000FCD50D4940F205720A60016821F00301E4
:101450000160016841F0020101600168C1F381018E
:101460000229FAD10CBD01920CBD000000380240E7
:101470000070004008544007003C02404FF0E0215B
:101480000428086903D020F004000861704740F088
:101490000400FAE710B502F043FE012803D0BDE8CE
:1014A000104002F031BB10BD124810B5016841F484
:1014B000700101601048016841F0010101600E4AAD
:1014C00000210832116002680C4B1A400260031DB3
:1014D0000B4A1A60026822F48022026006480C302F
:1014E0000160FFF771FF03494FF000608039086029
:1014F00010BD000088ED00E000380240FFFFF6FE5E
:10150000103000240029018802D041F0800101E060
:1015100021F08001018070470029018802D041F04C
:10152000010101E021F0010101807047002930F83C
:10153000441F02D041F4004101E0C1F30E010180DB
:101540007047000030B5028C22F001020284028C48
:101550008388048B22F0020224F073050C882C434C
:101560008D8915434A882A430C4DA84202D00C4D60
:10157000A8420DD122F00805CA8923F440732A43FA
:1015800022F004058A882A430D8A1D434B8A2B4387
:101590008380048389684163028430BD0000014078
:1015A00000040140028B22F008020A4302837047C4
:1015B0004163704730B50288164C174DA0420DD0DC
:1015C000A8420BD0B0F1804F08D0144B984205D000
:1015D000134B984202D0134B984203D122F0700370
:1015E0004A881A43104B984206D0104B984203D0B9
:1015F00022F440730A891A4302804A68C2620A8848
:101600000285A04201D0A84201D1897A0186012138
:10161000818230BD00000140000401400004004010
:1016200000080040000C0040001000400014004082
:101630002DE9F0418846074601218AB00846FFF7A8
:1016400007FD01210846FFF7F7FC214E01220F217B
:101650003046FFF78EFA4FF40040009002208DF8DC
:1016600004008DF8050000248DF8064001258DF852
:10167000075069463046FFF740FAADF80880AE07DC
:101680000397ADF81050ADF80A4002A93046FFF7B5
:1016900091FF6020ADF81400ADF81650ADF8204071
:1016A00005A93046FFF74EFF01213046FFF73EFF08
:1016B00008213046FFF776FF01213046FFF722FF71
:1016C000746301213046FFF727FF0AB0BDE8F081BF
:1016D000000002400020704770B5344C40F22551A4
:1016E000204600F0C3F800285FD0204600F04CF9F7
:1016F0002F4AC3B2108808B90F2B56D12D490025A7
:101700000B54401C80B21080192800D9158008782D
:101710000F284AD1087E002847D11088192844D1C3
:10172000244C00203A3C0B5C23540D54401C1928D7
:10173000F9DB204915803A3901F11A0001F016FB56
:101740001C4E0820203E318A00F024F940B3308A34
:10175000194EB0F57A7F4FF001000AD901F036FC3E
:10176000552001F033FC802001F030FC0120307066
:1017700008E001F02BFC442001F028FC802001F05F
:1017800025FC35700D4E06F8335F757000214FF063
:101790008040FFF70DFFC6F80350C6F80750F572FA
:1017A00000202554401C1928FBDB70BD0050004070
:1017B0003000002072050020D4000020D800002056
:1017C00000207047002070472DE9FC411F4C40F27B
:1017D0002551204600F04AF81D4D70B1204600F01A
:1017E000D3F81C4EC0B201283178685403D00027CA
:1017F00019B1802804D0491C31706878BDE8FC819B
:101800006878112804D0222804D0882806D01BE04C
:10181000687319E0A873A878E87315E002206C4695
:1018200004E02A5C2318401C03F8022C8842F8DBF1
:1018300021464FF4C060FEF7FFFF0022A05C01F0DC
:10184000C5FB521C082AF9DB3770D6E70048004078
:10185000180100201C0000200029818902D041F4D9
:10186000005101E021F400518181704770B501F011
:101870001F0501260024C1F3421306FA05F2012BCD
:101880000FD0022B0FD0838A4FEA11210088134218
:1018900006FA01F600EA060001D000B10124204654
:1018A00070BD8389F0E7038AEEE710B5C1F34213F8
:1018B00001F01F040121A140012B07D0022B07D00A
:1018C0001430002A026805D00A4304E00C30F8E71F
:1018D0001030F6E78A43026010BD00007FB5044671
:1018E000008A0D46C98820F4405001432182A08916
:1018F00041F20C618843A9882A8911436A8902430D
:101900001143A181A08A20F44071A8890843A082D4
:101910006846FFF7B5FB1A48844202D01948844252
:1019200001D1039800E00298A189090400EBC001ED
:1019300001EB0010296801D5490000E08900B0FBE7
:10194000F1F06422B0FBF2F109010B096FF0180508
:101950006B4300EB8300A3891D044FF0320306D5CF
:1019600003EBC000B0FBF2F000F0070005E003EB72
:101970000010B0FBF2F000F00F00084320817FBDA3
:1019800000100140001401408088C0F30800704737
:10199000FEE70000074B33F810208A1A00D55242A8
:1019A00092B20A2A01D80020704723F810100120B3
:1019B00070470000885900200FB4054B10B503A9EB
:1019C000044A029800F018F810BC5DF814FB0000FF
:1019D0005D1D00083400002002E008C8121F08C185
:1019E000002AFAD170477047002001E001C1121FA0
:1019F000002AFBD1704700002DE9FF4F8BB09A46BB
:101A00000F460546002606E025280BD052460D99C4
:101A100090476D1C761C28780028F5D10FB0304611
:101A2000BDE8F08F0024A0460122604900E0044395
:101A300015F8013F203B02FA03F00842F7D128785D
:101A40002E2817D115F8010F44F004042A280ED0CF
:101A50006FF02F022878A0F1300109290AD808EB8D
:101A6000880102EB410100EB01086D1CF2E757F819
:101A7000048B6D1C287869283ED006DC0028CDD068
:101A800063280BD0642804D136E0732810D0752861
:101A90004BD052460D999047761C85E017F8040B01
:101AA0008DF8000000208DF80100E946012003E0D8
:101AB00057F8049B4FF0FF3061074FF0000401D44A
:101AC0000AE0641C44450DDA8442FADB19F804107C
:101AD0000029F6D106E0641C8442FCDB19F80410EE
:101AE0000029F8D1264404E019F8010B52460D995B
:101AF0009047641EF8D257E001CF4FF00A0B002840
:101B000002DA40422D2102E0210504D52B218DF877
:101B10002410012103E0E10705D02021F7E70DF1B2
:101B2000200908910CE00021F9E701CF4FF00A0BE2
:101B3000F9E75946FEF766FC01F1300209F8012D7C
:101B40000028F6D1ADEB090000F1200B600701D4AD
:101B50004FF00108D84502DDA8EB0B0000E00020A3
:101B60008046002406E009A85246005D0D99904782
:101B7000641C761C08988442F5DB04E03020524651
:101B80000D999047761CB8F10001A8F10108F5DC29
:101B900005E019F8010B52460D999047761CBBF1F0
:101BA0000001ABF1010BF4DC6D1C34E709280100E6
:101BB00008B500F0DDF8074C00901421684601F0EC
:101BC000DBFB00F009F8FEF731FF0821206801F087
:101BD00029FEF2E704000020F0B5364C2B2000254A
:101BE00020706570A570E57094F83300207194F84A
:101BF00034006071A5714820E5713A2120720122FC
:101C00006172A2727023E37294F8353023735EB26E
:101C100004F13603F35C6373A573E57345262674FC
:101C200044276774A074E17422755720607594F896
:101C30003700A07594F83800E07594F839002076E4
:101C400094F83A00607694F83B00A07694F83C0053
:101C5000E07694F83D00207794F83E006077FEF738
:101C600001FFA077E67784F82070402184F82110E6
:101C7000032084F82200022084F8230084F82450F2
:101C800084F8255084F8265084F8275084F828508A
:101C900084F82910042184F82A1084F82B0084F891
:101CA0002C5084F82D5084F82E5084F82F5084F84E
:101CB0003050F0BDD800002010B504460420FFF7D6
:101CC000DDFB0A484FF47A71047014FB01F1012224
:101CD00042804FF0E020026942F00202026141615D
:101CE000016941F00101016110BD000028000020E0
:101CF00070B5044602F014FA01280CD0094D68882A
:101D0000844203D3B4FBF0F001F000FB6888B4FB1D
:101D1000F0F100FB11444FF47A706043BDE870406D
:101D200000F002B82800002070B54FF0E025002137
:101D30006C69094AAB6912785043AA699A42FCD08F
:101D400002D2A3EB020302E0A4EB020633441944DF
:101D500013468142F1D370BD2800002003490A8850
:101D60005206FCD5C2B28A807047000000100140C4
:101D700010B502F0D5F9012803D0BDE8104002F0FB
:101D8000DDB90148406810BD2800002008B5074CA7
:101D90004FF0FF35012300951A460F21206801F00E
:101DA00099FD0F28F6D1FEF711FFF3E7040000209C
:101DB000104F114E114D124CDFF848A04FF00008A3
:101DC0004FF00109387830B986F83E90286801F064
:101DD0009DFA86F83E80D4F8B802C043C4F8B80231
:101DE000286801F093FA0421DAF8000001F01AFDE6
:101DF000E8E70000D4000020D800002020000020E8
:101E000000804142040000201CB500F02DFF07496E
:101E10000120CDE900010202002305A1074802F0DC
:101E200053F901F061FC00201CBD000000000020FF
:101E300073746172745F7461736B0000952B00089A
:101E40000346012000E05843491EC9B2FBD2704747
:101E500038B58248007801287ED1002180A208464A
:101E6000FFF7A2F87F4C94F933000C25002808DD19
:101E70007DA200210F20FFF797F8009594F93320F9
:101E800008E07AA200210F20FFF78EF8009594F960
:101E900033004242052300211420FFF749F874A2C1
:101EA0000A210020FFF780F894F93400002808DDAB
:101EB0006DA20D210F20FFF777F8009594F93420DB
:101EC00008E06AA20D210F20FFF76EF8009594F943
:101ED0003400424205230D211420FFF729F865A2A2
:101EE0001A210020FFF760F8634D40F2DC51288989
:101EF000884204D961A21A210F20FFF755F82889DA
:101F000040F2E731A0F2F510884204D25DA21A2116
:101F10000F20FFF749F82889B0F5FA7F04D25BA2B9
:101F20001A210F20FFF740F85AA21A213C20FFF790
:101F30003BF894F83A00012808D194F83B000128B6
:101F400004D152A21A214B20FFF72EF894F83A0040
:101F500078B994F83B0000E07FE050B994F83C0079
:101F600038B994F83D0020B946A21A214B20FFF75A
:101F70001BF894F83C00012808D194F83D00012892
:101F800004D13EA21A214B20FFF70EF842A22721CE
:101F90000020FFF709F894F8370020B939A227216B
:101FA0000F20FFF701F894F83700012804D13BA275
:101FB00027210F20FEF7F8FF3AA227213C20FEF749
:101FC000F3FF94F8380038B994F8390020B936A2F4
:101FD00027214B20FEF7E8FF94F83800012804D1B0
:101FE00033A227214B20FEF7DFFF94F839000128A8
:101FF00004D131A227214B20FEF7D6FF30A2342195
:102000000020FEF7D1FF94F83200022804D126A266
:1020100034211E20FEF7C8FF94F83200012804D1B5
:1020200023A234211E20FEF7BFFF94F832000428BB
:1020300004D121A234211E20FEF7B6FF21480078EA
:10204000012808D020A234215A20FEF7ADFFBDE8B8
:102050003840FEF707BF1EA2F5E738BDC4000020D8
:1020600041000000D80000202D0000002B000000DF
:102070004200000051000000520500205570202051
:102080000000000053746F7000000000446F776E12
:1020900000000000480000004400000052756E205F
:1020A00000000000580000004D6964646C65000089
:1020B00048696768202000004C6F772020200000CE
:1020C00043617200D4000020524F532020000000D2
:1020D000522D4320200000002DE9F041184E0F46FC
:1020E0000446F5683068001D00F07AFF38B93068A2
:1020F00090F82C1001208840316981433161601CC7
:1021000007D137B13168BDE8F0410E48091D00F034
:10211000ABBF30682C44AC424460316805D2B06B30
:10212000BDE8F041091D00F087BF706B091D00F08C
:1021300083FFB06A844200D2B462BDE8F08100003F
:10214000480000204C0900202DE9F041054600F030
:1021500097FF2D4EB068401CB06030682B4F10B117
:10216000706930B32BE03560B068012827D10024B6
:1021700004EB840007EB800000F050FF641C202C6F
:10218000F6D3234800F04AFF2148143000F046FF00
:102190001F48283000F042FF1D483C3000F03EFF51
:1021A0001B48503000F03AFF194870631430B06398
:1021B00005E03068E96AC06A884200D83560706A14
:1021C0000121401C70626864E86A326981401143F1
:1021D000316100EB800007EB8000291D00F044FF17
:1021E00000F08AFF706900280CD03068E96AC06A84
:1021F000884207D207494FF080500860BFF34F8FE5
:10220000BFF36F8FBDE8F081480000207C060020FE
:10221000FC08002004ED00E010B500F031FF0E4C8A
:102220002068A0B90D4800F0F9FE0C48143000F009
:10223000F5FE0A48E06014302061002210210520DC
:1022400001F078FC206010B105A101F02BF8BDE889
:10225000104000F051BF0000840000206009002001
:10226000546D72510000000070B5124E124D1CE00A
:1022700001F084FA306820B1002402F0CBF8A4B950
:1022800001E00124F9E700F0FBFEF068C468201DBE
:1022900000F0A6FEA868401EA8606868401E68603E
:1022A00000F02AFF204600F052F868680028DFD1CD
:1022B00070BD0000380900204800002030B4026CD6
:1022C0000B46002A0BD0C1681144C1604468A1428A
:1022D00001D30168C16030BC1846FDF7CDBF30BCEA
:1022E00070472DE9F041856B174604460026026CC5
:1022F00082B1C7B1E068FDF7BFFFE168206C091A41
:10230000E1602268914202D26168081AE060022FFF
:1023100016D017E02068A8B9606801F089FF06466A
:10232000002060600EE0A068FDF7A6FF216CA068A9
:102330000844A0606168884204D32068A06001E07E
:1023400005B16D1E6D1CA5633046BDE8F08110B56A
:102350000446006B00F002FF2046BDE8104000F08C
:10236000FDBE000010484FF4A041420706D0C01D3A
:102370000D4920F00700411AC1F5A0410B4A002386
:102380000144C2E900030839103A21F00701116045
:102390004B600B600B1AC0E9001393604FF00040D4
:1023A0005360D0607047000088090020B40000200E
:1023B000074E4FF08054074DFFF756FF3068012855
:1023C000FAD92C60BFF34F8FBFF36F8FF4E7000093
:1023D0007C06002004ED00E02DE9F047DDE90984EA
:1023E0000E461746824691009946089DA522206B0D
:1023F000FDF754FF6FF00301206B01EB87010844E8
:1024000020F00707780705D040F22B3219A11EA053
:10241000FFF7D2FA00202218315C82F83410315CC8
:1024200011B1401C1028F6D3002684F84360202DFB
:1024300000D31F25E562C4E91356201D00F0F9FD05
:1024400004F1180000F0F5FD2461C5F1200064627C
:10245000A061666584F858604A465146384600F0E7
:102460000DFB2060B8F1000F01D0C8F80040BDE8B6
:10247000F08700002E2E5C4672656552544F535C07
:102480007461736B732E63004572726F723A2573B9
:102490002C25640D0A00000030B5114900E01146FA
:1024A0000A688242FBD34B685C18844203D14068BF
:1024B00018444860084643681C18944209D1084CE7
:1024C000103C2468A24209D052681A4442600A684B
:1024D00012680260814200D0086030BD0460F9E7F4
:1024E000B400002070B5002441600B4D00619142A2
:1024F00006D8D11A8269914206D2011D286907E0E7
:102500009A4203D2994201D3012403E0011DE868F5
:1025100000F092FD204670BD8400002010B50446F6
:1025200000F0AEFDA06B20B1002400F0E5FD2046D8
:1025300010BD0124F9E700002DE9F34100980F4692
:102540000026846C2CB940F6CE1216A11AA0FFF713
:1025500033FAA06BE16B884205D340F6CF1211A18C
:1025600015A0FFF729FAA06BE16B88420CD294F911
:1025700045503A4669462046FFF7B3FE0646681CBA
:1025800005D06D1C84F845503046BDE8FC81606A7A
:102590000028F9D004F1240001F0A4FE0028F3D0B3
:1025A0000126F1E72E2E5C4672656552544F535C4E
:1025B00071756575652E63004572726F723A257389
:1025C0002C25640D0A000000F8B5054614480E4697
:1025D000C068C068C468201D00F002FDE0690128E1
:1025E00017D1A0692B46411932462046FFF77AFFE2
:1025F00078B100200346014600902A46204601F0AB
:10260000EFFF30B907494FF4027201F11800FFF7EC
:10261000D3F9616A01B02046BDE8F04008470000E8
:10262000840000204445000870B586B02F4E53E06A
:102630000198002806DADDE90301029A9047019823
:10264000002849DB039C606910B1201D00F0C8FC24
:1026500005A800F0A7F8054601980A283CD2DFE853
:1026600000F00505053B273805053B270298A169C1
:10267000034601442A462046FFF734FF00282BD0AA
:10268000616A20468847E069012825D10020009032
:102690000298A169002342181946204601F0A0FFC4
:1026A000D0B940F2213212A117A0FFF785F913E04B
:1026B0000298A06128B94FF44E720DA112A0FFF745
:1026C0007BF9A0692B4641191A462046FFF70AFFFD
:1026D00002E0204600F042FD00231A4601A93068BE
:1026E00001F064FA0028A3D106B070BD8400002078
:1026F0002E2E5C4672656552544F535C74696D654D
:1027000072732E63000000004572726F723A257377
:102710002C25640D0A000000F8B50D46064601F0B0
:102720002DF8684600F03EF80446009810B101F01C
:1027300071FEF8BD1148ADB101690968D9B1002534
:10274000311B2A46006800F0BFFD01F063FE00283F
:10275000EFD10B494FF080500860BFF34F8FBFF3AC
:102760006F8FF8BDA642EBD801F054FE21463046EB
:10277000FFF72AFFF8BD0125E2E7000084000020F2
:1027800004ED00E00648416B096829B1416BC96856
:10279000C9684968816270474FF0FF31FAE700006D
:1027A0004800002070B5054601F0C8FC064E0446FE
:1027B000B068844203D200F009F8012000E0002054
:1027C00028602046B46070BD84000020F8B5184E23
:1027D00026E0C068C4680568201D00F001FC616A3D
:1027E00020468847E06901281AD1A0692844A842F8
:1027F00006D924616060211DF06800F01DFC0FE027
:1028000000200346014600902A46204601F0E8FEDB
:1028100030B9084940F2923201F11800FFF7CCF8C4
:10282000F06801680029D4D13169C6E90310F8BD08
:10283000840000204445000808484068401C05D03A
:1028400040F20F1206A111A0FFF7B6F8502080F356
:102850001188BFF34F8FBFF36F8FFEE79800002002
:102860002E2E5C4672656552544F535C706F7274C5
:1028700061626C655C525644535C41524D5F434DFE
:1028800034465C706F72742E630000004572726F84
:10289000723A25732C25640D0A00000003460020BF
:1028A00012B1994302D070470B42FCD0012070470F
:1028B000084CE068016839B1002139B10020FFF708
:1028C0002BFFFFF7B1FEF4E70121F6E7C0680068CF
:1028D000F5E70000840000202DE9F041044600F0F7
:1028E000CFFB94F9455004F1240610E0A06C20B110
:1028F00000212046FFF720FE04E0606A48B1304620
:1029000001F0F0FC08B100F0F3FD6D1E6DB2002D7A
:10291000ECDC4FF0FF3684F8456000F0EDFB00F092
:10292000AFFB94F9445004F1100709E0206948B165
:10293000384601F0D7FC08B100F0DAFD6D1E6DB22B
:10294000002DF3DC84F84460BDE8F04100F0D4BB16
:102950002DE9F0410546002600F010FF324F38689F
:1029600008B9FFF7FFFCF86805424FD1002D4DD0A4
:10297000083568070BD005F00700C0F108000544D2
:10298000680704D0BF2229A132A0FFF715F8002D57
:102990003CD07868854239D823491031084604680C
:1029A00001E0214604466068A84202D2206800285F
:1029B000F7D13868B846844228D00E68206808608D
:1029C00060680836401B10280ED96719780704D0B4
:1029D000EC2216A11FA0FEF7EFFF6068401B786095
:1029E00038466560FFF758FD6168D8F80400424634
:1029F000401AC8F80400D8F80830984200D2906015
:102A0000D8F80C0001430020C4E9000101F002FDE8
:102A1000700705D04FF4967204A10EA0FEF7CCFF0C
:102A20003046BDE8F0810000A40000202E2E5C4658
:102A300072656552544F535C706F727461626C655D
:102A40005C4D656D4D616E675C686561705F342ECD
:102A5000630000004572726F723A25732C25640D75
:102A60000A0000000449086818B10868026D521C89
:102A700002650868704700004800002010B5031F79
:102A80004FF080741C601B1F21F001011960191F99
:102A9000044B0B6014390A60091F6FF002024438BE
:102AA0000A6010BD39280008A0F57A7000B210B590
:102AB00000F16301C72900D20020FDF773FC9FEDF0
:102AC000091B53EC112BFDF7FBFBFDF77CFC40B21F
:102AD000642801DD642010BD6FF063018842FADADA
:102AE000084610BD000000000000C03F08B5FFF719
:102AF0003FF9DFF890900127234D244CDFF890A098
:102B00004FF00208002600906421684600F034FC73
:102B1000D9F80000322802DAC5F8AC7204E0333884
:102B2000312801D2C5F8AC62A16801290DD0E06856
:102B300001280AD06068052809DA6068401C6060D6
:102B4000052804DAC5F8AC7205E06660F5E70528EB
:102B500001D1C5F8AC62012901D1C4F80880E06850
:102B6000012801D1C4F80C80607818B1FEF7B0F8E4
:102B7000667001E0FFF76CF90221DAF8000000F05E
:102B800051FEC1E7BC00002000804142C40000208B
:102B9000040000202DE9FC4100F072FA00F034FE40
:102BA0001B4D0024234668600220CDE90004070283
:102BB0003A4618A11B4801F087FA0326CDE90064C4
:102BC00000233A4618A11B4801F07EFACDE90064C3
:102BD00000233A4618A11B4801F076FA0420CDE9FB
:102BE000000400233A4618A11A4801F06DFA0120AA
:102BF000CDE900040202002317A11A4801F064FA8B
:102C0000286800F00FFCBDE8FC4100F075BA000038
:102C100000000020436F6E74726F6C5F7461736BA1
:102C200000000000810A000873686F775F746173A9
:102C30006B000000ED2A00086C65645F7461736BC3
:102C400000000000B11D0008444154415F746173ED
:102C50006B000000B11B0008697764675F746173E3
:102C60006B0000008D1D000838B54FF44070FEF772
:102C700025F8A820FFF720F8FDF7C2FFFDF768FC54
:102C8000FEF75AF84FF4E134204600F0F1F8204600
:102C900000F044F90A4800F015F8002000900823DD
:102CA0000F2205210120FDF76DFC182140F219408B
:102CB000FEF7BEFCFDF706FFBDE83840FDF76EBF2E
:102CC000A08601002DE9F041804688B0012108204E
:102CD000FEF7B2F901210805FEF7BAF9214F0822E3
:102CE00002213846FDF745FF02208DF814008DF8CB
:102CF0001500002404268DF81640012504968DF851
:102D0000175004A93846FDF7F8FE2803ADF8040073
:102D10004000ADF80600C010ADF80800ADF80A603C
:102D2000114ECDF80080ADF80C4069463046FEF7F4
:102D3000D5FD01213046FEF78FFD012240F22551DD
:102D40003046FEF7B2FD35208DF818008DF8195089
:102D50008DF81A408DF81B5006A8FDF77DFF08B0CE
:102D6000BDE8F081000C0240005000403F49B1F83E
:102D70000120C2F30A0202808A78CB78D20842EAA4
:102D80004312C2F30A024280CA780B79920942EADE
:102D900083024B7942EA8322C2F30A0282804A7993
:102DA0008B79520842EAC312C2F30A02C2808A79BE
:102DB000CB79120942EA0312C2F30A020281CA79EC
:102DC0000B7AD20942EA43024B7A42EA4322C2F327
:102DD0000A0242814A7A8B7A920842EA8312C2F34B
:102DE0000A0282818A7ACB7A520942EAC302C281FC
:102DF0008A89C2F30A0202824A7B8B7BD20842EAAA
:102E00004312C2F30A0242828A7BCB7B920942EAD6
:102E100083020B7C42EA8322C2F30A0282820A7C8A
:102E20004B7C520842EAC312C2F30A02C2824A7CB5
:102E300013098A7C43EA0213C3F30A030383CB7C9E
:102E4000D20942EA43030A7D43EA4223C3F30A0359
:102E5000438393084A7D43EA8213C3F30A038383BF
:102E6000897D520942EAC101C183704738050020BB
:102E7000F0B50646012187B00846FEF7DDF80121CE
:102E80001020FEF7F1F8234D072209212846FDF70F
:102E900070FE07220A212846FDF76BFE02218DF8FD
:102EA000141000248DF816404FF4C0608DF81510F2
:102EB000049001278DF8177004A92846FDF71DFE20
:102EC00025208DF8180003208DF819008DF81A4080
:102ED0008DF81B7006A8FDF7BFFEADF80440ADF8F5
:102EE0000640ADF80840ADF80C400C200A4CADF897
:102EF0000A00009669462046FEF7F0FC012240F2E7
:102F000025512046FEF7D1FC01212046FEF7A4FC06
:102F100007B0F0BD00000240001001402DE9F04173
:102F2000804688B001210220FEF786F8012188043E
:102F3000FEF78EF8234F07220A213846FDF719FEC7
:102F400007220B213846FDF714FE02258DF8145098
:102F500000244FF440608DF8164004908DF8155011
:102F600001268DF8176004A93846FDF7C6FD272015
:102F70008DF818008DF819508DF81A408DF81B60E7
:102F800006A8FDF769FEADF80440ADF80640ADF8BF
:102F90000840ADF80C400C200B4CADF80A00CDF801
:102FA000008069462046FEF799FC012240F2255137
:102FB0002046FEF77AFC01212046FEF74DFC08B0C2
:102FC000BDE8F08100040240004800400349088049
:102FD000081F01884906FCD57047000004480040DE
:102FE000D0E9013201699A60D0E901235A604A6848
:102FF000824201D182684A60002202610868401E54
:1030000008607047044908680A688069D26A0968DC
:10301000C2F120028A6170474800002000F10801D7
:103020004FF0FF32C0E90112C1600161002101606F
:10303000704700210161704730B50C68621C02D0F6
:1030400000F1080202E0026904E01A4653681D68B4
:10305000A542FAD953684B6099608A605160086153
:103060000168491C016030BD42684A6093688B600A
:1030700093685960916008610168491C016070475C
:10308000502080F31188BFF34F8FBFF36F8F094932
:103090004868401C486001280AD10748006810F0C1
:1030A000FF0F05D040F2B91204A10FA0FEF784BCB7
:1030B000704700009800002004ED00E02E2E5C46D2
:1030C00072656552544F535C706F727461626C65C7
:1030D0005C525644535C41524D5F434D34465C70E4
:1030E0006F72742E630000004572726F723A25731E
:1030F0002C25640D0A00000010B5084C606828B942
:103100004FF4E07206A111A0FEF756FC6068401E65
:10311000606001D180F3118810BD0000980000208C
:103120002E2E5C4672656552544F535C706F7274FC
:1031300061626C655C525644535C41524D5F434D35
:1031400034465C706F72742E630000004572726FBB
:10315000723A25732C25640D0A00000070B5002812
:103160002AD0164DA0F108046068E968084205D12C
:103170004FF4A07212A11CA0FEF71EFC206828B11B
:1031800040F241120EA118A0FEF716FC6068E96833
:10319000084211D02268002A0ED18843606000F0F6
:1031A000EDFA60686968084468602046FFF774F9C2
:1031B000BDE8704001F02EB970BD0000A4000020F1
:1031C0002E2E5C4672656552544F535C706F72745C
:1031D00061626C655C4D656D4D616E675C686561D3
:1031E000705F342E630000004572726F723A25736F
:1031F0002C25640D0A00000006484FF47A7100681F
:10320000B0FBF1F14FF0E020491E4161072101615F
:10321000704700000800002010B5FDF717F8104CAB
:1032200010280CD300F1E02090F8F00321788842B8
:1032300005D24FF440720BA115A0FEF7BDFB184854
:103240000068A16800F4E060884207D9BDE810403A
:103250004FF4447203A10EA0FEF7AEBB10BD0000F8
:10326000980000202E2E5C4672656552544F535CC8
:10327000706F727461626C655C525644535C41526B
:103280004D5F434D34465C706F72742E63000000D6
:103290004572726F723A25732C25640D0A00000086
:1032A0000CED00E010B5074B002253F832401CB182
:1032B000521C082AF9D310BD43F8321003EBC201A7
:1032C000486010BD3C06002070B515460E46044609
:1032D000FFF7D6FE94F944100020491C01D184F870
:1032E000440094F94510491C01D184F84500FFF7CA
:1032F00003FFA06B28B92A46314604F1240000F0F0
:1033000027F92046BDE87040FFF7E6BA10B5040083
:1033100012D00E49096B29B140F2CF420CA111A085
:10332000FEF74AFB00F02AFA00212046FEF7D4FE01
:1033300001F070F8002807D10E494FF08050086066
:10334000BFF34F8FBFF36F8F10BD00004800002008
:103350002E2E5C4672656552544F535C7461736BDC
:10336000732E63004572726F723A25732C25640DBB
:103370000A00000004ED00E02DE9F0410E460500D2
:103380004FF0000405D140F279421BA11FA0FEF7C7
:1033900013FB2EB940F27A4217A11CA0FEF70CFBDA
:1033A0001E4F386B28B140F27B4213A117A0FEF7E5
:1033B00003FB00F0E3F9FA6828688119904202D90A
:1033C000884202D804E0884201D8914200D9012401
:1033D00029601CB1881A0021FEF77EFE01F01AF860
:1033E000002807D10E494FF080500860BFF34F8F7F
:1033F000BFF36F8FBDE8F0812E2E5C46726565527B
:10340000544F535C7461736B732E63004572726F1B
:10341000723A25732C25640D0A0000004800002034
:1034200004ED00E070B50446FFF72AFE234D04B911
:103430002C68201DFFF7D4FD58B9E06A204A00EB44
:10344000800152F8211021B9012181402869884367
:103450002861A06A18B104F11800FFF7C1FD686A7D
:10346000401C68622868844207D1211D1548FFF777
:10347000FBFD6868401C686007E0A868401EA86003
:103480002046FEF764FFFFF77DF9FFF735FE686918
:10349000002812D0286884420FD1286B28B140F24E
:1034A000654209A10DA0FEF787FA10494FF0805040
:1034B0000860BFF34F8FBFF36F8F70BD48000020CF
:1034C0007C060020380900202E2E5C46726565526D
:1034D000544F535C7461736B732E63004572726F4B
:1034E000723A25732C25640D0A00000004ED00E0FB
:1034F00001490120C86170474800002070B50D46A1
:10350000040005D140F6063207A10CA0FEF754FADC
:103510000E48016820461831FFF78EFD2846BDE8A9
:1035200070400121FEF7D8BD2E2E5C4672656552B3
:10353000544F535C7461736B732E63004572726FEA
:10354000723A25732C25640D0A0000004800002003
:1035500070B514460E46050005D140F6313209A17A
:103560000DA0FEF729FA1048016828461831FFF728
:103570007BFD0CB14FF0FF3621463046BDE8704070
:10358000FEF7AABD2E2E5C4672656552544F535C01
:103590007461736B732E63004572726F723A257398
:1035A0002C25640D0A000000480000202DE9F041A0
:1035B00017460E46050005D140F617320DA112A0A0
:1035C000FEF7FAF9144C206B28B940F61B3209A11A
:1035D0000DA0FEF7F1F9216846F0004088612168EE
:1035E00028461831FFF740FD3846BDE8F04101217B
:1035F000FEF772BD2E2E5C4672656552544F535CC9
:103600007461736B732E63004572726F723A257327
:103610002C25640D0A0000004800002070B504004D
:1036200039D01D4DE06A2968C96A884233D2A06941
:10363000002804DB2868C06AC0F12000A061E06AAD
:10364000164E00EB8000616906EB800081421FD1BD
:10365000201DFFF7C5FC012150B9E06A00EB800294
:1036600056F8222022B92A6901FA00F082432A6121
:103670002868C06AE0622A6981401143296100EB31
:10368000800006EB8000211DBDE87040FFF7ECBC18
:103690002868C06AE06270BD480000207C060020F7
:1036A00010B5040005D140F6C13205A109A0FEF70E
:1036B00083F90C48016A2160C068606010BD000099
:1036C0002E2E5C4672656552544F535C7461736B69
:1036D000732E63004572726F723A25732C25640D48
:1036E0000A000000480000201CB517480024CDE95E
:1036F00000402346822215A1164800F0E5FC01286F
:1037000003D100F033FF01280AD0401C1BD102B0C6
:1037100040F28472BDE810400FA114A0FEF74CB92E
:10372000502080F31188BFF34F8FBFF36F8F06488F
:103730004FF0FF312C38816201214161C460BDE846
:103740001C4000F057B91CBD7400002049444C4592
:1037500000000000B12300082E2E5C467265655201
:10376000544F535C7461736B732E63004572726FB8
:10377000723A25732C25640D0A0000000248016B83
:10378000491C0163704700004800002070B5134DCC
:10379000286B10B10120E86170BD0020E861286944
:1037A0000F4EB0FA80F0C0F11F0000EB800456F815
:1037B000240028B940F6F6220AA10FA0FEF7FCF873
:1037C00006EB840000F108024168496841609142BB
:1037D00001D149684160C868286070BD4800002078
:1037E0007C0600202E2E5C4672656552544F535C59
:1037F0007461736B732E63004572726F723A257336
:103800002C25640D0A00000010B51C20FFF7A0F85D
:10381000040004D000202060201DFFF7FFFB20469D
:1038200010BD00002DE9F04100258846040005D1B7
:1038300040F21D221CA123A0FEF7BEF85FEA18602B
:1038400005D040F21E2218A11EA0FEF7B5F8261DD5
:1038500004F10C07FFF792FF2168F06841EA0801C4
:10386000216017E0D0E9001601F07F425301236880
:1038700021F07F4102D40B4203D10AE031EA030375
:1038800007D1D20100D50D43216841F0007100F04D
:1038900075FD3046B842E5D12068A843206000F0AD
:1038A000B9FD2068BDE8F0812E2E5C467265655238
:1038B000544F535C6576656E745F67726F75707395
:1038C0002E6300004572726F723A25732C25640DC9
:1038D0000A0000002DE9F047089F9A4691460D46E0
:1038E00004004FF0000605D140F24D1235A13CA076
:1038F000FEF762F8280E05D04FF4A77231A138A068
:10390000FEF75AF82DB940F24F122EA134A0FEF75F
:1039100053F800F005FC30B92FB14FF4A97229A17A
:103920002FA0FEF749F8FFF729FFD4F80080524690
:1039300029464046FEF7B2FF40B100274646B9F19E
:10394000000F15D02068A843206011E0AFB1B9F195
:10395000000F01D04FF08076BAF1000F01D046F091
:10396000806645EA06013A46201DFFF71FFE002645
:1039700000F050FD1FB310B109E04646F8E71C49BE
:103980004FF080500860BFF34F8FBFF36F8FFFF78A
:1039900039FB0646800110D4FFF772FB26685246B9
:1039A00029463046FEF77AFF28B1B9F1000F02D060
:1039B0002068A8432060FFF79FFB26F07F46304633
:1039C000BDE8F0872E2E5C4672656552544F535CFD
:1039D0006576656E745F67726F7570732E63000035
:1039E0004572726F723A25732C25640D0A0000002F
:1039F00004ED00E01CB5304C20683049884205D108
:103A000040F259122EA139A0FDF7D6FF20682B49AC
:103A1000491E884205D14FF4AD7229A133A0FDF7AC
:103A2000CBFF364C20780190FF20207020788DF855
:103A300000009DF800009DF8001000F0F0008842A2
:103A400005D040F273121EA128A0FDF7B5FF9DF826
:103A500000002B4A00F0500010700720906007E033
:103A60009068401E90609DF8000040008DF80000B6
:103A70009DF800000006F3D4107A000200F4E06024
:103A80009060019820700C482030016841F470016A
:103A90000160016841F070410160FFF7ADFB00205B
:103AA0005060FCF79BFB1748016841F04041016002
:103AB000FCF784FB00201CBD00ED00E071C20F414B
:103AC0002E2E5C4672656552544F535C706F727453
:103AD00061626C655C525644535C41524D5F434D8C
:103AE00034465C706F72742E630000004572726F12
:103AF000723A25732C25640D0A00000000E400E0F2
:103B00009800002034EF00E010B5502080F31188B9
:103B1000BFF34F8FBFF36F8F00F016FB18B104494E
:103B20004FF080500860002080F3118810BD000025
:103B300004ED00E02DE9F04117460E46050005D1E1
:103B40004FF4C47210A115A0FDF736FFBEB105FBFE
:103B500006F05430FEF7FCFE04000ED004F15400D1
:103B60007EB12060C4E90F562046012100F0E0F844
:103B700084F8507000212046A164BDE8F081002047
:103B8000E7E72460EEE700002E2E5C467265655282
:103B9000544F535C71756575652E63004572726F85
:103BA000723A25732C25640D0A0000002DE9FF4FA1
:103BB00083B09B468A4604004FF0000605D140F2D0
:103BC000DC4251A155A0FDF7F7FEBAF1000F07D175
:103BD000206C28B140F2DD424BA150A0FDF7ECFE75
:103BE00000F09EFA38B9059828B14FF49C6246A1BE
:103BF0004AA0FDF7E1FE4FF000094FF08057DFF8D3
:103C00002C81FFF73DFAA56B45B351462046E66887
:103C1000FEF754FBBBF1000F13D0E660606A50B1B1
:103C200004F1240000F05EFB28B1C8F80070BFF377
:103C30004F8FBFF36F8FFFF75FFA012007B0BDE82A
:103C4000F08F6D1EA563206810B9FEF70BFF606052
:103C500020690028EFD004F11000E3E7059808B1CF
:103C60001EB106E0FFF748FA27E06846FFF718FDA7
:103C70000126FFF741FAFFF781FDFFF701FA94F9FA
:103C80004400401C01D184F8449094F94500401C44
:103C900001D184F84590FFF72FFA05A9684600F096
:103CA000CFF9002820460AD0FEF716FE00F0B2FB3E
:103CB0002046FEF733FC0028A3D00020BEE7FEF725
:103CC0002DFCD8B1206830B9FFF7DAF96068FFF74A
:103CD000A5FCFFF711FA04F124000599FFF70EFC8B
:103CE0002046FEF7F9FD00F095FB002889D1C8F8C1
:103CF0000070BFF34F8FBFF36F8F82E72046FEF750
:103D0000EBFD00F087FB7CE72E2E5C46726565526A
:103D1000544F535C71756575652E63004572726F03
:103D2000723A25732C25640D0A00000004ED00E0B2
:103D300070B50D46040005D140F21B121CA121A054
:103D4000FDF73AFEFFF79CF9D4E90F20216802FB4A
:103D5000001161600021A1632168A1600A46D4E9D5
:103D60000F01401E00FB0121E16021464FF0FF30B2
:103D700001F8440F487004F110004DB1FFF74EF9FF
:103D800004F12400FFF74AF9FFF7B6F9012070BDEE
:103D900021690029F8D000F0A5FA0028F4D00D49D7
:103DA0004FF080500860BFF34F8FBFF36F8FEBE78A
:103DB0002E2E5C4672656552544F535C7175657565
:103DC000652E63004572726F723A25732C25640D5F
:103DD0000A00000004ED00E02DE9FF4F83B0994692
:103DE0008B4604004FF0000605D140F2D92252A1C3
:103DF00056A0FDF7E1FDBBF1000F07D1206C28B103
:103E000040F2DA224CA151A0FDF7D6FDB9F1020F24
:103E100008D1E06B012805D040F2DB2246A14BA07F
:103E2000FDF7CAFD00F07CF938B9059828B140F2D9
:103E3000DE2241A145A0FDF7BFFD4FF0000A4FF083
:103E40008057DFF81881FFF71BF9A06BE16B884200
:103E500006D3B9F1020F03D0059800B316B325E0DD
:103E60004A4659462046FEF73CFAA16C21B1494624
:103E70002046FEF761FB05E0616A19B104F12400F8
:103E800000F030FA28B1C8F80070BFF34F8FBFF3CD
:103E90006F8FFFF731F9012007B0BDE8F08FFFF712
:103EA0002BF921E06846FFF7FBFB0126FFF724F919
:103EB000FFF764FCFFF7E4F894F94400401C01D1DB
:103EC00084F844A094F94500401C01D184F845A031
:103ED000FFF712F905A9684600F0B2F830B12046A4
:103EE000FEF7FAFC00F096FA0020D5E7FFF7C8F8D5
:103EF000A06BE16B884201D1012500E00025FFF7AE
:103F0000FBF895B104F110000599FFF7F7FA204688
:103F1000FEF7E2FC00F07EFA002894D1C8F80070A9
:103F2000BFF34F8FBFF36F8F8DE72046FEF7D4FCB2
:103F300000F070FA87E700002E2E5C46726565522D
:103F4000544F535C71756575652E63004572726FD1
:103F5000723A25732C25640D0A00000004ED00E080
:103F60002DE9F047984615468946040005D140F2F0
:103F70009F322AA12EA0FDF71FFDB9F1000F07D136
:103F8000206C28B14FF4687224A129A0FDF714FD1C
:103F9000B8F1020F08D1E06B012805D040F2A13240
:103FA0001EA123A0FDF708FDFFF736F95020EFF31F
:103FB000118780F31188BFF34F8FBFF36F8FA06B12
:103FC000E16B884207D3B8F1020F04D0002087F3D9
:103FD0001188BDE8F08794F945604246494620467D
:103FE000FEF77FF9701C04D0761C84F84560012030
:103FF000EDE7A06C012620B141462046FEF79CFA71
:1040000006E0606A0028F2D004F1240000F06AF9AA
:104010000028ECD0002DEAD02E60E8E72E2E5C467A
:1040200072656552544F535C71756575652E6300FA
:104030004572726F723A25732C25640D0A000000D8
:1040400070B50D46040005D140F6CB3214A119A07D
:10405000FDF7B2FC2DB940F6CC3211A115A0FDF749
:10406000ABFCFFF70DF8174AD06829684B1C0FD03E
:104070002368126A934202D0626882420AD9626857
:10408000801A884206D2081A28602046FFF708FBEB
:10409000002400E00124FFF72FF8204670BD000047
:1040A0002E2E5C4672656552544F535C7461736B7F
:1040B000732E63004572726F723A25732C25640D5E
:1040C0000A000000480000202DE9FF5F8346DDE97B
:1040D0000E87994616468A469000FEF739FC050081
:1040E0001AD05C20FEF734FC040012D025630021B6
:1040F000CDE90241CDE900874B463246514658464C
:10410000FEF76AF92046FEF71FF8012004B0BDE86B
:10411000F09F2846FFF722F84FF0FF30F6E7000047
:104120000548416919B1006B18B1002070470120A2
:104130007047022070470000480000200148C06816
:1041400070470000480000202DE9F0412D4F002667
:10415000386B40B1B869401CB861F86900B10126FC
:104160003046BDE8F081FD686D1CFD6011D1786BB3
:10417000006828B140F6D91223A128A0FDF71CFC45
:10418000786BB96B7963B863386A401C3862FEF7A4
:10419000F9FAB86ADFF89480854209D3786B006831
:1041A00080B1786BC068C468606885420DD2B8621F
:1041B0003868C06A00EB800158F821000128CCD98A
:1041C0000126CAE74FF0FF30F1E7201DFEF708FF98
:1041D000A06A18B104F11800FEF702FFE06A01219D
:1041E0003A6981401143396100EB800108EB81009D
:1041F000211DFEF739FFE06A3968C96A8842CDD3CC
:104200000126CBE7480000202E2E5C4672656552E1
:10421000544F535C7461736B732E63004572726FFD
:10422000723A25732C25640D0A0000007C060020DC
:1042300070B504004FF000063CD01F4D2868844242
:1042400005D040F6C7621DA121A0FDF7B5FB206D8A
:1042500028B940F6C96219A11DA0FDF7ADFB206D7C
:10426000401E2065E26CE16A914223D010BB201D04
:10427000FEF7B6FE1A49012250B9E06A00EB80034E
:1042800051F8233023B92B6902FA00F083432B61E4
:10429000E06CE062C0F12000A061E06A2B6982401E
:1042A0001A432A6100EB800001EB8000211DFEF71C
:1042B000DBFE0126304670BD480000202E2E5C46F5
:1042C00072656552544F535C7461736B732E630057
:1042D0004572726F723A25732C25640D0A00000036
:1042E0007C0600202DE9F041C068C4682CB940F676
:1042F000613216A11AA0FDF75FFB04F11800074612
:10430000FEF76EFE1A4D286B012660B1394619483A
:10431000FEF7AAFEE06A2968C96A884213D901201B
:10432000EE61BDE8F081201DFEF75AFEE06A2A69C1
:1043300006FA00F1114329610F4900EB800001EBFF
:104340008000211DE4E70020EBE700002E2E5C46F4
:1043500072656552544F535C7461736B732E6300C6
:104360004572726F723A25732C25640D0A000000A5
:1043700048000020240900207C06002070B51A4D5A
:1043800006460C46286B28B940F6993217A11CA0A6
:10439000FDF712FB44F000403060F4682CB940F6A1
:1043A000A13212A116A0FDF707FB3046FEF718FE5A
:1043B000201DFEF715FEE06A01262A6906FA00F1C3
:1043C00011432961124900EB800001EB8000211D9F
:1043D000FEF74AFEE06A2968C96A884202D90120CC
:1043E000EE6170BD002070BD480000202E2E5C469E
:1043F00072656552544F535C7461736B732E630026
:104400004572726F723A25732C25640D0A00000004
:104410007C0600202DE9F0472B4D00242746286B11
:1044200028B94FF4FD6229A12DA0FDF7C5FAFEF7CA
:1044300027FE286B401E2863286BE8BBA8682C4920
:104440000126C8B3A1F52A798846D8F80010E9B149
:10445000D8F80C00C46804F11800FEF7C1FD201D57
:10446000FEF7BEFDE06A2A6906FA00F111432961F0
:1044700000EB800109EB8100211DFEF7F5FDE06AEC
:104480002968C96A8842E0D3EE61DEE70CB1FEF725
:1044900079F9AC693CB1FFF757FE00B1EE61641EDB
:1044A000F9D10020A861E86930B112490127380725
:1044B0000860BFF34F8F00E001E0BFF36F8FFEF79E
:1044C0001BFE3846BDE8F087480000202E2E5C46D3
:1044D00072656552544F535C7461736B732E630045
:1044E0004572726F723A25732C25640D0A00000024
:1044F0002409002004ED00E02DE9F0470746994625
:1045000016460D462C20DDF820A0FEF721FA040007
:1045100014D0B8464F46D1462DB94FF4C67209A102
:104520000EA0FDF749FAFDF777FE04F11801C4F873
:10453000008081E8E002201DFEF77BFD2046BDE8FB
:10454000F08700002E2E5C4672656552544F535C16
:1045500074696D6572732E63000000004572726F9E
:10456000723A25732C25640D0A0000001CB5002446
:10457000FDF752FE0C48006868B10B491F20091D69
:10458000CDE9000100234FF4827208A10948FFF72A
:104590009BFD040005D140F2331207A10CA0FDF7EA
:1045A0000BFA20461CBD000084000020546D7220D0
:1045B00053766300B12800082E2E5C467265655262
:1045C000544F535C74696D6572732E630000000074
:1045D0004572726F723A25732C25640D0A00000033
:1045E0002DE9FF47DDF830A0994690460D460600BC
:1045F0004FF0000705D14FF4D37212A117A0FDF7B9
:10460000DBF91A4C206880B1CDE900580296062DDE
:1046100011DAFFF785FD02284FF0000309D00022D0
:1046200069462068FFF7D8FB074604B03846BDE866
:10463000F0875246F4E700234A466946FFF790FCAC
:10464000F2E700002E2E5C4672656552544F535CB3
:1046500074696D6572732E63000000004572726F9D
:10466000723A25732C25640D0A0000008400002096
:10467000000000000000000000000000000000003A
:104680003F4000000000000000003000400030000B
:104690004000000009000BC03D000BC03D000900B8
:1046A00018C024407FE0224031800000180024C060
:1046B0001B000D803240018003801C4027401C807D
:1046C00007400040100060000000000000000000F3
:1046D0000000000000001F8020404020000040201B
:1046E00020401F8000000000090006001F80060017
:1046F00009000000040004003F80040004000000E2
:104700000010006000000000000000000400040031
:10471000040004000400000000000040000000004D
:1047200000000000002001C006003800400000002A
:104730001F802040204020401F80000000001040CB
:104740003FC000400000000018C02140224024402B
:104750001840000010802040244024401B800000AE
:1047600002000D0011003FC0014000003C802440C9
:1047700024402440238000001F80244024403440F3
:10478000038000003000200027C038002000000017
:104790001B802440244024401B8000001C0022C0B9
:1047A000224022401F80000000000000084000005E
:1047B0000000000000000000046000000000000095
:1047C000000004000A001100208040400900090098
:1047D000090009000900000000004040208011008D
:1047E0000A000400180020002340240018000000E4
:1047F0001F802040274029401F400000004007C084
:1048000039000F0001C0004020403FC02440244038
:104810001B8000001F80204020402040308000008E
:1048200020403FC0204020401F80000020403FC06B
:1048300024402E4030C0000020403FC024402E00C5
:10484000300000000F001080204022403380020022
:1048500020403FC0040004003FC0204020402040D2
:104860003FC02040204000000060202020203FC0AA
:104870002000200020403FC024400B0030C02040DA
:1048800020403FC020400040004000C03FC03C00EE
:1048900003C03C003FC0000020403FC00C4023004C
:1048A0003FC020001F802040204020401F8000008B
:1048B00020403FC024402400180000001F802140F9
:1048C000214020E01FA0000020403FC024402600DF
:1048D00019C0004018C0244024402240318000000C
:1048E000300020403FC020403000000020003F80CA
:1048F000004000403F80200020003E0001C0070033
:1049000038002000380007C03C0007C03800000015
:10491000204039C0060039C0204000002000384047
:1049200007C0384020000000304021C026403840F9
:1049300020C00000000000007FE040204020000078
:10494000000070000C0003800040000000004020C8
:1049500040207FE000000000000020004000200018
:1049600000000000001000100010001000100010E7
:104970000000000040000000000000000000028075
:104980000540054003C0004020003FC004400440F3
:104990000380000000000380044004400640000043
:1049A00000000380044024403FC00040000003801A
:1049B0000540054003400000000004401FC02440A3
:1049C00024402000000002E005500550065004205D
:1049D00020403FC00440040003C0004000000440E9
:1049E00027C000400000000000100010041027E065
:1049F0000000000020403FC00140070004C0044008
:104A0000204020403FC000400040000007C004009C
:104A100007C0040003C00000044007C004400400B5
:104A200003C00040000003800440044003800000F5
:104A3000041007F0045004400380000000000380CD
:104A40000440045007F00010044007C00240040076
:104A500004000000000006400540054004C00000BE
:104A6000000004001F800440004000000400078094
:104A70000040044007C000400400070004C001805B
:104A800006000400060001C0070001C00600000087
:104A9000044006C0010006C00440000004100710D6
:104AA00004E00180060004000000044005C0064048
:104AB000044000000000000004007BE040200000F3
:104AC000000000000000FFF0000000000000402097
:104AD0007BE0040000000000400080004000200057
:104AE0002000400000000000000000000000000066
:104AF000000000000000000000001FCC000C0000BF
:104B000000000000000008003000600008003000D5
:104B100060000000022003FC1E20022003FC1E2077
:104B20000220000000000E1811043FFF10840C78D2
:104B3000000000000F0010840F3800C007781884B0
:104B40000078000000780F8410C411240E9800E44F
:104B500000840008080068007000000000000000E9
:104B60000000000000000000000007E0181820040A
:104B700040020000000040022004181807E0000076
:104B8000000000000240024001800FF0018002405E
:104B9000024000000080008000800FF8008000804C
:104BA000008000000001000D000E00000000000069
:104BB0000000000000000080008000800080008075
:104BC000008000800000000C000C000000000000CD
:104BD00000000000000000060018006001800600D0
:104BE00018002000000007F008081004100408084E
:104BF00007F000000000080408041FFC0004000483
:104C00000000000000000E0C101410241044118449
:104C10000E0C000000000C1810041104110412887E
:104C20000C700000000000E00320042408241FFC96
:104C30000024000000001F98108411041104108843
:104C400010700000000007F0088811041104188893
:104C50000070000000001C00100010FC13001C007D
:104C60001000000000000E3811441084108411441C
:104C70000E38000000000700088C1044104408881B
:104C800007F00000000000000000030C030C00000F
:104C9000000000000000000000010106000000000C
:104CA00000000000000000800140022004100808FD
:104CB0001004000002200220022002200220022014
:104CC0000220000000001004080804100220014027
:104CD0000080000000000E001200100C106C10800C
:104CE0000F00000003E00C1813E4142417C4082874
:104CF00007D000000004003C03C41C40074000E44F
:104D0000001C000410041FFC1104110411040E887F
:104D10000070000003E00C181004100410041008C8
:104D20001C10000010041FFC1004100410040808DC
:104D300007F0000010041FFC1104110417C4100434
:104D40000818000010041FFC1104110017C0100007
:104D50000800000003E00C181004100410441C7834
:104D60000040000010041FFC1084008000801084AC
:104D70001FFC10040000100410041FFC1004100499
:104D80000000000000030001100110011FFE1000D0
:104D90001000000010041FFC110403801464181C90
:104DA0001004000010041FFC1004000400040004A0
:104DB000000C000010041FFC1F0000FC1F001FFC63
:104DC0001004000010041FFC0C04030000E0101885
:104DD0001FFC100007F00808100410041004080855
:104DE00007F0000010041FFC108410801080108059
:104DF0000F00000007F0081810241024101C080AE7
:104E000007F2000010041FFC1104110011C0113042
:104E10000E0C000400000E1C1104108410841044B9
:104E20001C3800001800100010041FFC10041000B3
:104E30001800000010001FF8100400040004100403
:104E40001FF8100010001E0011E0001C00701380FD
:104E50001C0010001FC0103C00E01F0000E0103CD0
:104E60001FC000001004180C163401C001C0163415
:104E7000180C100410001C00130400FC13041C0088
:104E8000100000000804101C1064108413041C049B
:104E9000101800000000000000007FFE40024002E9
:104EA00040020000000030000C0003800060001C85
:104EB0000003000000004002400240027FFE0000AC
:104EC0000000000000000000200040004000400002
:104ED00020000000000100010001000100010001AC
:104EE0000001000100004000400020000000000020
:104EF0000000000000000098012401440144014426
:104F000000FC000410001FFC00880104010400885C
:104F1000007000000000007000880104010401041A
:104F200000880000000000700088010401041108DE
:104F30001FFC0004000000F8014401440144014446
:104F400000C800000000010401040FFC110411045A
:104F500011001800000000D601290129012901C90A
:104F60000106000010041FFC008401000100010480
:104F700000FC000400000104190419FC00040004F2
:104F8000000000000000000300010101190119FEEA
:104F90000000000010041FFC0024004001B4010CBC
:104FA000010400000000100410041FFC00040004B1
:104FB00000000000010401FC0104010001FC0104E7
:104FC000010000FC010401FC008401000100010457
:104FD00000FC0004000000F80104010401040104C5
:104FE00000F80000010101FF0085010401040088B0
:104FF0000070000000000070008801040104010539
:1050000001FF00010104010401FC0084010401000E
:1050100001800000000000CC0124012401240124AF
:105020000198000000000100010007F801040104DC
:1050300000000000010001F8000400040004010861
:1050400001FC0004010001800170000C00100160EF
:105050000180010001F0010C003001C00030010CA2
:1050600001F0010000000104018C00740170018C4A
:1050700001040000010101810171000E00180160AE
:105080000180010000000184010C0134014401840D
:10509000010C0000000000000000000001003EFCC8
:1050A000400240020000000000000000FFFF00007E
:1050B000000000000000400240023EFC0100000031
:1050C0000000000000006000800080004000400000
:1050D00020002000404281FE00000121D21408146B
:1050E000E2010000080808FF090419111197711165
:1050F00011151900000000000000FF0000000080F2
:10510000600000004040404040407F4040424140FD
:10511000404040000106F840404040FE40404241CF
:10512000FE00000000007F444444447F4444444463
:105130007F000000000106F88080808080808080F1
:10514000C00000000000001F101090701010101020
:105150001F000000404281FE00000121D21408140B
:10516000E2010000080808FF0904191111977111E4
:10517000111519008080FE848A6418E422A2A2FA24
:10518000A2A22200020CF72424012739082A2AFFB0
:105190002A3E08004080FE0808FC0106F89090FCBA
:1051A0009291FE002021273A2223040817E42427A5
:1051B0002C340700000000FC09120418E000E0187D
:1051C00004020100020242330000000000FF000060
:1051D000000000000001020CF00000000000FF00D1
:1051E00000000000014141417F41414141417F4177
:1051F000414101000244A810688400007F424242FD
:10520000427F000008080FF8080F0002071AE202A8
:105210000A060300000000FF22222222222222FF8F
:10522000000000000000001F113151911111111FE9
:105230000000000020C000FF0082221A8272061ABD
:10524000E202020008080BFF090A040A32C2320A0D
:10525000040202000102040830C00000FC02020245
:10526000020E00000002424242437E42434242425A
:10527000020200004241FE8222A4A8B0A07FB0A892
:10528000A4A222000808FF080907F49497909794B5
:10529000F4070000800000FF00000000FF10101065
:1052A000101000000001061FE0020CF01F11111188
:1052B00011101000106080FF806081010202E4087C
:1052C00030C000002424257FC44400031C00FF00DC
:1052D00010080600020418E0007F424242424242A7
:1052E0007F0000000000003F24242424444444C4E0
:1052F00044040400000204F80402FA12220282426A
:10530000A21A0200020242330000FF92929392928C
:10531000FE010000003E0202020202FE0202020240
:10532000023F000000003E02020202FF02020202EF
:105330003F000000020202FE020202FE020202021E
:1053400002020200004040434040407F4141414151
:1053500041400000408000FF0282828282FE828201
:1053600082820200101011131C30D0101017101080
:1053700010101000000000FF22222222222222FF11
:10538000000000000000001F113151911111111F88
:105390000000000020C000FF0082221A8272061A5C
:1053A000E202020008080BFF090A040A32C2320AAC
:1053B0000402020000001A1C0000000000000000AF
:1053C00000000000000000000000000000000000DD
:1053D00000000000106080FF806081010202E4088C
:1053E00030C000002424257FC44400031C00FF00BB
:1053F00010080600020418E0007F42424242424286
:105400007F0000000000003F24242424444444C4BE
:1054100044040400008181828CF0808080FE8181C0
:10542000818F0000083020242424A4642424242410
:10543000202830000106F8000804F80102846818EA
:1054400064821F0000001F111111111010FF109035
:1054500050131000101810FF202000FF4242FE429F
:1054600042FF0000131DF1171111000F0808FF087B
:10547000080F00000106F890909090FE9090929195
:10548000FE00000004081724E4242427242C3404FC
:1054900007000000000204F80412224282FA82424D
:1054A000221202000202423300202F2929FF29295B
:1054B0002F200000020CF1012132AAA4A4A4AA32D8
:1054C0000101010000003F2424243FA464243F2460
:1054D00024242000000000FF22222222222222FF78
:1054E000000000000000001F113151911111111F27
:1054F0000000000020C000FF0082221A8272061AFB
:10550000E202020008080BFF090A040A32C2320A4A
:1055100004020200008181828CF0808080FE818103
:10552000818F0000083020242424A464242424240F
:10553000202830000106F8000804F80102846818E9
:1055400064821F0000001F111111111010FF109034
:10555000501310008080FE848800FF9292929292F5
:10556000FF000000020CF724261212FE121212FE97
:10557000121202000000FE042921222428F028240F
:105580002221210002423300000179494949494959
:1055900079010000800000FF0000000000C030081A
:1055A00004021F000001061FE0040404FE05088831
:1055B000680808004080FE0808FC00101010101257
:1055C0001102FC002021273A222300404F41414193
:1055D0007F0101000000F810101010FE11111111D0
:1055E000F9010F0000001F11111111FF111111110C
:1055F0001F0000000106F80202020202FE0202225F
:105600001A02020000007F40414141415F41414197
:1056100041414000000204F80402028202120AF230
:10562000020202000202423300101211101010FF99
:1056300010101000800000FF0000FF0204008271C3
:105640000C021F000001061FE0003F2121217F41C5
:10565000C14101000000FF000181A29488F4828210
:105660008181010001061FE02027242424FF242437
:105670002427200000FF48484A49FE00007E1111FF
:1056800021410700103352921252331800FE1111BB
:10569000214107000001020CF00000000000FF00A3
:1056A00000000000014141417F41414141417F41B2
:1056B00041410100818182828488B0C0B0888482A7
:1056C00082818100000008886808080F080828C83F
:1056D00008000000818182828488B0C0B088848202
:1056E00082818100000008886808080F080828C81F
:1056F0000800000000FF001020408804F8000002AD
:1057000001FE0000001F8044044444455F444444BB
:10571000407F00001018122122FC00FE0A12628253
:10572000621A0200405F41417F01007F40484641CC
:1057300046584000083CC808281D020C7080020131
:1057400002FC0000022223222222020808FF08088D
:10575000080F000044E644484848020204C83028C4
:1057600044821F00040C35C60418010909FF099280
:1057700052120200020CF1010202C42810284482D5
:105780000201010000003F2424272424444444C58E
:1057900046000000202241FE804141526AC4444A32
:1057A00072414000080808FF080A222AA663222640
:1057B0002A2202001018122122FC00FE0A12628224
:1057C000621A0200405F41417F01007F404846412C
:1057D00046584000083CC808281D020C7080020191
:1057E00002FC0000022223222222020808FF0808ED
:1057F000080F0000202241FE800001F1020CF00899
:1058000004F30000080808FF080900037A4A4A4A1E
:105810007A030000101810E0202810204080FF00BC
:1058200000C03000040404FF040420202021273895
:105830002120200044E644484A1CE0FF90FE90FCF2
:1058400091FF0000040C35C60C003F24A4642424FE
:10585000243C00004080FE0808FC001010101012CC
:105860001102FC002021273A222300404F414141F0
:105870007F01010010102F2949498F00804F4929CD
:10588000291F1000010179494949790701794D4BD8
:1058900049790100202241FE800001F1020CF0084C
:1058A00004F30000080808FF080900037A4A4A4A7E
:1058B0007A030000101810E0202810204080FF001C
:1058C00000C03000040404FF0404202020212738F5
:1058D000212020000000F810101010FE11111111ED
:1058E000F9010F0000001F11111111FF1111111109
:1058F0001F00000020207E820CF004C89281FE80F0
:1059000090C8040008064031007F404F4A5A6A4A56
:105910004A4F400008102040800000FF0000008037
:1059200040300000004040404041424F7042414002
:1059300040400000106080FF00C1062026312D216C
:1059400023E806002424257FC544102949C9495964
:10595000690F000001020478040202FE22222222C2
:1059600022020200083022222222A26322222222C4
:105970002228300020207E80027E42427E427E42EB
:10598000427E02000806403100007F4949494949EA
:105990007F000000020CF1012132AAA4A4A4AA32C3
:1059A0000101010000003F2424243FA464243F247B
:1059B00024242000000204F80402028202120AF2E7
:1059C000020202000202423300101211101010FFF6
:1059D00010101000007F40405E52525252525E4002
:1059E000417F0000202020202F29A96929292F206C
:1059F000202020000000F810101010FE11111111CD
:105A0000F9010F0000001F11111111FF11111111E7
:105A10001F00000020C000FF00C106F8000000FCCD
:105A200002021E0008080BFF0908007F4040407F6B
:105A30000000000044E644484848020204C83028F8
:105A400044821F00040C35C60418010909FF09929D
:105A500052120200202241FE804141526AC4444A4F
:105A600072414000080808FF080A222AA66322267D
:105A70002A2202008080FE848800FF9292929292F5
:105A8000FF000000020CF724261212FE121212FE72
:105A9000121202001020C000000201FE00000000EF
:105AA0000080700000000007000000FF00000004FC
:105AB0000201000010109090909090FF90909090B4
:105AC00090101000001011121418F0171010101080
:105AD00010100000020202FE020202FE0202020296
